:100000006BEF03F00000000000EF00F000000000C4
:0A0010000000000000000000F3D71C
:10001C000B1E0A1E091E081E082AD8B4092AD8B4B9
:08002C000A2AD8B40B2A1200C5
:100034000450085E0550D8A0053C095E0650D8A0BF
:10004400063C0A5E0750D8A0073C0B5E0336070E39
:100054000C6E0334083609360A360B36045003A0F6
:100064000ED0085E0550D8A0053C095E0650D8A005
:10007400063C0A5E0750D8A0073C0B5E0DD008264C
:100084000550D8B0053C09260650D8B0063C0A26CF
:100094000750D8B0073C0B2603360C2EDAD70234AF
:1000A400083609360A360B36045003A00ED0085E13
:1000B4000550D8A0053C095E0650D8A0063C0A5E4F
:1000C4000750D8A0073C0B5E0DD008260550D8B0C9
:1000D400053C09260650D8B0063C0A260750D8B07D
:1000E400073C0B260236070E0C6E0234083609361E
:1000F4000A360B36045002A00ED0085E0550D8A074
:10010400053C095E0650D8A0063C0A5E0750D8A0FC
:10011400073C0B5E0DD008260550D8B0053C0926D7
:100124000650D8B0063C0A260750D8B0073C0B2628
:1001340002360C2EDAD70134083609360A360B3665
:10014400045002A00ED0085E0550D8A0053C095EFC
:100154000650D8A0063C0A5E0750D8A0073C0B5EA8
:100164000DD008260550D8B0053C09260650D8B055
:10017400063C0A260750D8B0073C0B260136070E6A
:100184000C6E0134083609360A360B36045001A0C9
:100194000ED0085E0550D8A0053C095E0650D8A0D4
:1001A400063C0A5E0750D8A0073C0B5E0DD008261B
:1001B4000550D8B0053C09260650D8B0063C0A269E
:1001C4000750D8B0073C0B2601360C2EDAD7003482
:1001D400083609360A360B36045001A00ED0085EE4
:1001E4000550D8A0053C095E0650D8A0063C0A5E1E
:1001F4000750D8A0073C0B5E0DD008260550D8B098
:10020400053C09260650D8B0063C0A260750D8B04B
:10021400073C0B260036070E0C6E003408360936F0
:100224000A360B36045000A00ED0085E0550D8A044
:10023400053C095E0650D8A0063C0A5E0750D8A0CB
:10024400073C0B5E0DD008260550D8B0053C0926A6
:100254000650D8B0063C0A260750D8B0073C0B26F7
:1002640000360C2EDAD700B00ED004500826055004
:10027400D8B0053C09260650D8B0063C0A260750DB
:08028400D8B0073C0B26120064
:10028C005306530653C001F053060150000803E215
:10029C0000000000F7D70000000000000000000084
:0202AC0012003E
:1002AE00010E526E3150511A32C0E9FF33C0EAFFCF
:1002BE003150000A03E03450EF1202D03850EF16DE
:1002CE0039C053F0DCDF511E525216E05250511419
:1002DE00006E03E13450EF1202D03850EF16523652
:1002EE005290020E395C536ECADF0000000000000F
:1002FE00000000000000E8D73150000A03E038503B
:10030E00EF1602D03450EF1239C053F0B8DF12009E
:10031E000450000A12E10550000A0FE10650000ACF
:10032E000CE10750000A09E1FF0E006EFF0E016E90
:10033E00FF0E026E7F0E036E97D00C6A07BE0C2A5C
:10034E000D6A0B6A0A6A096A086A035002100110E4
:10035E000010D8B484D0035007180E6E0EBE0D1EBA
:10036E0007AE0BD0041E051E061E071E042AD8B4A7
:10037E00052AD8B4062AD8B4072A03AE0BD0001E1D
:10038E00011E021E031E002AD8B4012AD8B4022A66
:10039E00D8B4032A035007100E6E0EBE1CD043DED7
:1003AE000CBE36D00DAE5BD0001E011E021E031E0B
:1003BE00002AD8B4012AD8B4022AD8B4032A081EB7
:1003CE00091E0A1E0B1E082AD8B4092AD8B40A2AF6
:1003DE00D8B40B2A44D007AE15D003BE0DD00350AF
:1003EE000B6E02500A6E0150096E0050086E036AC1
:1003FE00026A016A006AD6D7036A026A016A006A53
:10040E00002A000C031E021E011E001E0C8EC7D7F2
:10041E00082AD8B4092AD8B40A2AD8B40B2A045008
:10042E00085CD8A4BFD70550095CD8A4BBD706502A
:10043E000A5CD8A4B7D707500B5CD8A4B3D70B6A05
:10044E000A6A096A086A002AD8B4012AD8B4022AAC
:10045E00D8B4032A03AEA6D70E6A0E88FF0C0E6A16
:0A046E000CA001D0D4DD000F120035
:10047800A00E006E0F0E016E000E026E036E1200CB
:10048800220E0C6E086A096A0A6A0B6A0C06D8B44E
:100498001FD0D8900B320A320932083203320232A6
:1004A80001320032D8A0F2D70C06D8B409D00450D3
:1004B80008260550092206500A2207500B22EAD7BF
:1004C800045008260550092206500A2207500B221C
:0204D800120010
:1004DA000900F5CFE6FF0006FBE10106F9E112008B
:1004EA003AC032F03BC033F03CC000F0010E026E5D
:1004FA00005004E002360290FF0FFBD702C037F02B
:10050A00021C356E3DC001F0010E006E015004E080
:10051A0000360090FF0FFBD700C034F0001E00C069
:10052A0038F0120E3A24E96E000E3B20EA6E0250B1
:10053A00EF120050EF16316A4252D8A4311E120E41
:10054A00E95E3150000A03E03850EF1602D0345009
:10055A00EF128DDFE80E046E030E056E000E066EB6
:10056A00076E8DDF00C04DF001C04EF002C04FF0A3
:10057A0003C050F04DC043F04EC044F04FC045F0A8
:10058A0050C046F03EC000F03FC001F040C002F04B
:10059A0041C003F0003600900136023603360036B9
:1005AA0000900136023603360A0E046E000E056EFE
:1005BA00066E076E64DF00C047F001C048F002C053
:1005CA0049F003C04AF000C004F001C005F002C0BF
:1005DA0006F003C007F04DC000F04EC001F04FC056
:1005EA0002F050C003F096DE00C04BF001C04CF0A0
:1005FA0001C004F0056A0450051003E0020E006E03
:10060A0050D04BC039F047C004F048C005F049C08B
:10061A0006F04AC007F043C000F044C001F045C0EC
:10062A0002F046C003F076DE08C000F009C001F00F
:10063A000AC002F00BC003F000C043F001C044F04E
:10064A0002C045F003C046F047C005F048C006F0B6
:10065A0049C007F04AC008F00832073206320532AC
:10066A00089E08BC088E800E0818046E800E0318B7
:10067A00045C08E10250075C05E10150065C02E1F6
:10068A000050055CD8A0392A39C001F00132019E18
:10069A0001C036F0070E015C03E2010E006E01D0C4
:0406AA00006A1200D0
:1006AE003AC0E9FF3BC0EAFFEE520AE03AC0E9FF6A
:1006BE003BC0EAFFEECF51F0F3DD3A4A3B2AF0D7CA
:0806CE000D0E516EEDDD12006E
:1006D600D1EC03F0000E301802E1010E2F1824E1D0
:1006E600820E3A6E0F0E3B6E020E3C6E010E3D6E92
:1006F600800E3E6E250E3F6E000E406E416E426AC3
:10070600F1DE150E3A6E000E3B6ECEDF060E0B6E58
:10071600130E0C6EAD0E0D6E0D2EFED70C2EFCD7E5
:100726000B2EFAD700000000000E301802E1020E70
:100736002F1824E1820E3A6E0F0E3B6E050E3C6EAC
:10074600040E3D6E800E3E6E250E3F6E000E406E10
:10075600416E426AC7DE220E3A6E000E3B6EA4DF81
:10076600060E0B6E130E0C6EAD0E0D6E0D2EFED715
:100776000C2EFCD70B2EFAD700000000ABD7FFD704
:1007A20010EE15F01C0E006E010E016E860EF66E36
:0E07B200070EF76E000EF86E6DEC02F01200EE
:0D07860048454C4C4F20574F524C44210029
:0D07930048454C4C4F20574F524C4421001C
:0207A000010056
:020000040030CA
:0E000000000C1F1EFF8381FF0FC00FE00F409A
:00000001FF
