:100000006DEF00F00000000000EF00F000000000C5
:0A0010000000000000000000F3D71C
:0E001C00ACB202D00000FCD75CC0ADFF1200F9
:10002A005AC0E9FF5BC0EAFFEE520AE05AC0E9FF94
:10003A005BC0EAFFEECF5CF0ECDF5A4A5B2AF0D7EE
:08004A000D0E5C6EE6DF1200F2
:100052005AC0E9FF5BC0EAFFEE520AE05AC0E9FF6C
:100062005BC0EAFFEECF5CF0D8DF5A4A5B2AF0D7DA
:0200720012007A
:100074000900F5CFE6FF0006FBE10106F9E11200F5
:100084001C0E4A6E000E4B6E5C0E4C6E000E4D6ED6
:10009400FF0E526EFF0E536E000E546E000E556E20
:1000A400FF0E4E6EFF0E4F6E000E506E000E516E20
:1000B400FF0E566EFF0E576E000E586E000E596EF0
:1000C400AC8A900EAB6E948E949C9EAA03D0AECF55
:0600D40000F0FBD7120052
:1000DA00E4EC00F0B886B06A670EAF6EAC84CDDF90
:1000EA00310E5A6E000E5B6E9BDF060E0B6E130E00
:1000FA000C6EAD0E0D6E0D2EFED70C2EFCD70B2EF0
:10010A00FAD700000000270E5A6E000E5B6E9CDFC5
:10011A003E0E5A6E000E5B6E97DF3B0E5A6E000E55
:10012A005B6E92DF060E0B6E130E0C6EAD0E0D6E2D
:10013A000D2EFED70C2EFCD70B2EFAD7000000008E
:10014A00150E5A6E000E5B6E6BDF060E0B6E130EEB
:10015A000C6EAD0E0D6E0D2EFED70C2EFCD70B2E8F
:10016A00FAD7000000001A0E5C6E53DF290E0B6EE0
:10017A00960E0C6E7F0E0D6E0D2EFED70C2EFCD732
:08018A000B2EFAD7A7D7FFD70F
:1001C80010EE15F0350E006E010E016E920EF66EF1
:0E01D800010EF76E000EF86E3AEC00F0120009
:100192004D6F6E74686C79204475653A2031303049
:0201A20030002B
:0A01A40041542B434D47533D220008
:0A01AE0041542B434D47463D3100FC
:0301B800220D0015
:0C01BB00303936313436383034303600FC
:020000040030CA
:0E000000000C1F1EFF8381FF0FC00FE00F409A
:00000001FF
