:100000006BEF03F00000000000EF00F000000000C4
:0A0010000000000000000000F3D71C
:10001C000B1E0A1E091E081E082AD8B4092AD8B4B9
:08002C000A2AD8B40B2A1200C5
:100034000450085E0550D8A0053C095E0650D8A0BF
:10004400063C0A5E0750D8A0073C0B5E0336070E39
:100054000C6E0334083609360A360B36045003A0F6
:100064000ED0085E0550D8A0053C095E0650D8A005
:10007400063C0A5E0750D8A0073C0B5E0DD008264C
:100084000550D8B0053C09260650D8B0063C0A26CF
:100094000750D8B0073C0B2603360C2EDAD70234AF
:1000A400083609360A360B36045003A00ED0085E13
:1000B4000550D8A0053C095E0650D8A0063C0A5E4F
:1000C4000750D8A0073C0B5E0DD008260550D8B0C9
:1000D400053C09260650D8B0063C0A260750D8B07D
:1000E400073C0B260236070E0C6E0234083609361E
:1000F4000A360B36045002A00ED0085E0550D8A074
:10010400053C095E0650D8A0063C0A5E0750D8A0FC
:10011400073C0B5E0DD008260550D8B0053C0926D7
:100124000650D8B0063C0A260750D8B0073C0B2628
:1001340002360C2EDAD70134083609360A360B3665
:10014400045002A00ED0085E0550D8A0053C095EFC
:100154000650D8A0063C0A5E0750D8A0073C0B5EA8
:100164000DD008260550D8B0053C09260650D8B055
:10017400063C0A260750D8B0073C0B260136070E6A
:100184000C6E0134083609360A360B36045001A0C9
:100194000ED0085E0550D8A0053C095E0650D8A0D4
:1001A400063C0A5E0750D8A0073C0B5E0DD008261B
:1001B4000550D8B0053C09260650D8B0063C0A269E
:1001C4000750D8B0073C0B2601360C2EDAD7003482
:1001D400083609360A360B36045001A00ED0085EE4
:1001E4000550D8A0053C095E0650D8A0063C0A5E1E
:1001F4000750D8A0073C0B5E0DD008260550D8B098
:10020400053C09260650D8B0063C0A260750D8B04B
:10021400073C0B260036070E0C6E003408360936F0
:100224000A360B36045000A00ED0085E0550D8A044
:10023400053C095E0650D8A0063C0A5E0750D8A0CB
:10024400073C0B5E0DD008260550D8B0053C0926A6
:100254000650D8B0063C0A260750D8B0073C0B26F7
:1002640000360C2EDAD700B00ED004500826055004
:10027400D8B0053C09260650D8B0063C0A260750DB
:08028400D8B0073C0B26120064
:10028C004406440644C001F044060150000803E251
:10029C0000000000F7D70000000000000000000084
:0202AC0012003E
:1002AE00010E436E2550421A22C0E9FF23C0EAFF19
:1002BE002550000A03E02450EF1202D02650EF160C
:1002CE0029C044F0DCDF421E435216E04350421474
:1002DE00006E03E12450EF1202D02650EF16433683
:1002EE004390020E295C446ECADF0000000000003D
:1002FE00000000000000E8D72550000A03E0265059
:10030E00EF1602D02450EF1229C044F0B8DF1200CD
:10031E000450000A12E10550000A0FE10650000ACF
:10032E000CE10750000A09E1FF0E006EFF0E016E90
:10033E00FF0E026E7F0E036E97D00C6A07BE0C2A5C
:10034E000D6A0B6A0A6A096A086A035002100110E4
:10035E000010D8B484D0035007180E6E0EBE0D1EBA
:10036E0007AE0BD0041E051E061E071E042AD8B4A7
:10037E00052AD8B4062AD8B4072A03AE0BD0001E1D
:10038E00011E021E031E002AD8B4012AD8B4022A66
:10039E00D8B4032A035007100E6E0EBE1CD043DED7
:1003AE000CBE36D00DAE5BD0001E011E021E031E0B
:1003BE00002AD8B4012AD8B4022AD8B4032A081EB7
:1003CE00091E0A1E0B1E082AD8B4092AD8B40A2AF6
:1003DE00D8B40B2A44D007AE15D003BE0DD00350AF
:1003EE000B6E02500A6E0150096E0050086E036AC1
:1003FE00026A016A006AD6D7036A026A016A006A53
:10040E00002A000C031E021E011E001E0C8EC7D7F2
:10041E00082AD8B4092AD8B40A2AD8B40B2A045008
:10042E00085CD8A4BFD70550095CD8A4BBD706502A
:10043E000A5CD8A4B7D707500B5CD8A4B3D70B6A05
:10044E000A6A096A086A002AD8B4012AD8B4022AAC
:10045E00D8B4032A03AEA6D70E6A0E88FF0C0E6A16
:0A046E000CA001D0D4DD000F120035
:10047800A00E006E0F0E016E000E026E036E1200CB
:10048800220E0C6E086A096A0A6A0B6A0C06D8B44E
:100498001FD0D8900B320A320932083203320232A6
:1004A80001320032D8A0F2D70C06D8B409D00450D3
:1004B80008260550092206500A2207500B22EAD7BF
:1004C800045008260550092206500A2207500B221C
:0204D800120010
:1004DA000900F5CFE6FF0006FBE10106F9E112008B
:1004EA002BC022F02CC023F02DC000F0010E026EAA
:1004FA00005004E002360290FF0FFBD702C02AF038
:10050A00021C276E2EC001F0010E006E015004E09D
:10051A0000360090FF0FFBD700C024F0001E00C079
:10052A0026F0120E2B24E96E000E2C20EA6E0250E1
:10053A00EF120050EF16256A3352D8A4251E120E68
:10054A00E95E2550000A03E02650EF1602D0245037
:10055A00EF128DDFE80E046E030E056E000E066EB6
:10056A00076E8DDF00C03EF001C03FF002C040F0D0
:10057A0003C041F03EC034F03FC035F040C036F011
:10058A0041C037F02FC000F030C001F031C002F096
:10059A0032C003F0003600900136023603360036C8
:1005AA0000900136023603360A0E046E000E056EFE
:1005BA00066E076E64DF00C038F001C039F002C071
:1005CA003AF003C03BF000C004F001C005F002C0DD
:1005DA0006F003C007F03EC000F03FC001F040C083
:1005EA0002F041C003F096DE00C03CF001C03DF0CD
:1005FA0001C004F0056A0450051003E0020E006E03
:10060A0050D03CC029F038C004F039C005F03AC0D7
:10061A0006F03BC007F034C000F035C001F036C028
:10062A0002F037C003F076DE08C000F009C001F01E
:10063A000AC002F00BC003F000C034F001C035F06C
:10064A0002C036F003C037F038C005F039C006F0F2
:10065A003AC007F03BC008F00832073206320532CA
:10066A00089E08BC088E800E0818046E800E0318B7
:10067A00045C08E10250075C05E10150065C02E1F6
:10068A000050055CD8A0292A29C001F00132019E38
:10069A0001C028F0070E015C03E2010E006E01D0D2
:0406AA00006A1200D0
:1006AE002BC0E9FF2CC0EAFFEE520AE02BC0E9FF97
:1006BE002CC0EAFFEECF42F0F3DD2B4A2C2AF0D706
:0806CE000D0E426EEDDD12007D
:1006D600480E156E450E166E4C0E176E4C0E186EA5
:1006E6004F0E196E200E1A6E570E1B6E4F0E1C6E95
:1006F600520E1D6E4C0E1E6E440E1F6E210E206E87
:10070600216A820E2B6E0F0E2C6E050E2D6E040EB8
:100716002E6E800E2F6E250E306E000E316E326EEE
:10072600336AE0DE150E2B6E000E2C6EBDDF060E54
:100736000B6E130E0C6EAD0E0D6E0D2EFED70C2E1F
:0E074600FCD70B2EFAD700000000DBD7FFD740
:020000040030CA
:0E000000000C1F1EFF8381FF0FC00FE00F409A
:00000001FF
